S0170000536C6176652041746D6567612030312E7372656322
S11300000C942A000C9447000C9447000C9447006D
S11300100C9447000C9447000C9447000C94470040
S11300200C9447000C9447000C9447000C94470030
S11300300C9447000C9447000C9447000C94470020
S11300400C9447000C9447000C9447000C94470010
S11300500C94470011241FBECFE5D8E0DEBFCDBF0E
S113006010E0A0E6B0E0E4EDF3E002C005900D92EC
S1130070A237B107D9F720E0A2E7B0E001C01D9292
S1130080A837B207E1F70E94B8010C94E8010C9478
S11300900000BE9A87B38F7487BB6E9A0895CF937E
S11300A0DF931F92CDB7DEB7898389818FB9779BA0
S11300B0FECF8FB10F90DF91CF91089592B39F70CF
S11300C0282F207F922B92BB9098919A32E03A95F8
S11300D0F1F700C09198EFE8F1E03197F1F700C033
S11300E0000022B32F70F0E18F9FC0011124822BF6
S11300F082BB919A32E03A95F1F700C091988FE370
S11301009CE90197F1F700C00000089592B39F7035
S1130110282F207F922B92BB909A919A32E03A95A5
S1130120F1F700C09198EFE8F1E03197F1F700C0E2
S1130130000022B32F70F0E18F9FC0011124822BA5
S113014082BB919A32E03A95F1F700C091988FE31F
S11301509CE90197F1F700C000000895AF92BF92A7
S1130160CF92DF92EF92FF920F931F93CF93DF937F
S1130170D82FC62F6A017901813120F0833609F026
S11301805BC06CC0603128F0633611F4C3E601C073
S1130190C0E081B3806F81BB889A899A2FE788E396
S11301A091E0215080409040E1F700C00000D33638
S11301B0C1F0F60180818823A1F0DD2329F084E1D8
S11301C00E945E00D150D9F786015601F0E1AF0ECE
S11301D0B11C48C0A016B10621F0F801808181113C
S11301E041C080EC0E945E00C33609F48CC0F70164
S11301F0808181110BC087C084E10E945E00C150E0
S1130200D9F743C08881811144C07DC0C111F4CFA6
S11302103CC081B3806F81BB889A899AFFE728E349
S113022081E0F15020408040E1F700C00000F60179
S113023080818823B1F2C8CF603158F34CC081B3B8
S1130240806F81BB889A899AFFE728E381E0F150A7
S113025020408040E1F700C00000C3CF603108F0C7
S11302604EC0EDCFF80181918F010E948600FFE717
S113027028E381E0F15020408040E1F700C0000015
S1130280F60180818111A6CFACCFE701F0E1EF0E3A
S1130290F11C89910E9486002FE788E391E02150A8
S11302A080409040E1F700C00000CE15DF0509F062
S11302B0A9CF29C081B3806F81BB889A899AEFE75F
S11302C0F8E321E0E150F0402040E1F700C00000F5
S11302D0C0E0D0E06ECF633669F7D0E057CF81B38A
S11302E0806F81BB889A899A8FE798E3E1E0815017
S11302F09040E040E1F700C00000C0E072CF6336F8
S113030009F444CFECCFDF91CF911F910F91FF906F
S1130310EF90DF90CF90BF90AF90089581B3806F3E
S113032081BB889A899A2FE788E391E02150804025
S11303309040E1F700C0000082E00E945E0088E285
S11303400E945E008EE00E945E0086E00E945E00D5
S113035081E00E945E0008950E9486002FE788E3F2
S113036091E0215080409040E1F700C000000895E2
S11303700E9449000E948E010E944900C0E0D0E022
S113038089E70E944F00FE01EE58FF4F80838FE003
S113039097E20197F1F700C000002196C630D1051D
S11303A079F70E948E0120E730E040E650E060E0FB
S11303B080E00E94AE00C0E0D0E0FE01EE58FF4FA6
S11303C080810E94AC012196C630D105B1F7D2CF0D
S10703D0F894FFCFCB
S11303D45041535320524543454956452049533AC5
S10503E4000013
S9030000FC
