:100000000C942A000C943C000C943C000C943C0092
:100010000C943C000C943C000C943C000C943C0070
:100020000C943C000C943C000C943C000C943C0060
:100030000C943C000C943C000C943C000C943C0050
:100040000C9450020C943C000C943C000C943C002A
:100050000C943C0011241FBECFE5D8E0DEBFCDBF1D
:1000600020E0A0E6B0E001C01D92A636B207E1F79D
:100070000E9404010C945A020C940000BE9A87B3AB
:100080008F7487BB80E48DB908958FB98FE19EE4AA
:100090000197F1F700C00000779BFECF9FE728E3B0
:1000A00081E0915020408040E1F700C000008FB116
:1000B000089584E086BF11B882E080B9089584EA8B
:1000C00086BF06B607FEFDCF089584E986BF06B653
:1000D00004FCFDCF089583B984E886BF06B607FE09
:1000E000FDCF089584E886BF06B607FEFDCF83B135
:1000F0000895CF93DF93C82FD62F0E945F0081B160
:10010000887F8830C9F480EA0E946B0081B1887FC3
:100110008831A1F48C2F0E946B0081B1887F8832D6
:1001200079F48D2F0E946B0081B1887F883251F461
:100130000E94650085E007C081E005C082E003C041
:1001400083E001C084E0DF91CF9108950F931F9366
:10015000CF93C82F8B010E945F0081B1887F8830C8
:1001600039F580EA0E946B0081B1887F883111F5F2
:100170008C2F0E946B0081B1887F8832E9F40E9445
:100180005F0081B1887F8031C9F481EA0E946B00F1
:1001900081B1887F8034A1F40E947200F8018083CD
:1001A00081B1887F883571F40E94650087E00BC0BB
:1001B00081E009C082E007C083E005C084E003C09D
:1001C00085E001C086E0CF911F910F910895899A33
:1001D000889883E389B910BC8AB188618AB980B5EF
:1001E000866880BD2FE78AE196E0215080409040EC
:1001F000E1F700C0000008955D9BFECF8CB9089523
:100200005F9BFECF8CB10895CF93DF931F92CDB744
:10021000DEB7198278940E94E7000E943E000E9497
:100220005900BE016F5F7F4F80E090E00E94A60002
:1002300011E36894EE24E1F8F12C612FC7010E94CC
:1002400079008FE493EC0197F1F700C00000612F73
:10025000C70107960E9479008FE493EC0197F1F7AC
:1002600000C000009FEFE91AF90A1F5F173329F752
:1002700061EB80E190E00E9479008FE59AEE0197B2
:10028000F1F700C000006BE181E190E00E9479008D
:100290008FE59AEE0197F1F700C000006EEE80E066
:1002A00090E00E9479008FE59AEE0197F1F700C087
:1002B00000009E012F5F3F4F7901AA24AA94912C40
:1002C000C22EDF2C0F2EF9E0BF2EF02D689477247C
:1002D00073F8AABAABBA8AE00E944500882E00E003
:1002E00010E08AE00E944500F801E05AFF4F808349
:1002F0003FE788E391E0315080409040E1F700C053
:1003000000000F5F1F4F0630110559F721E08212E0
:1003100016C000E010E06C2D7D2DC80102960E94F1
:10032000A600F801E05AFF4F90818981981320C000
:100330000F5F1F4F0630110571F7872D1EC032E089
:10034000831218C000E010E06C2D7D2DC8010996C5
:100350000E94A600F801E05AFF4F9081898198130E
:100360000BC00F5F1F4F0630110571F7872D05C0B9
:100370008B2D03C0892D01C08B2D0E9445008FE776
:1003800098E321E0815090402040E1F700C0000058
:100390008AE00E9445003FE798E321E03150904019
:1003A0002040E1F700C00000863081F500E010E059
:1003B0008AE00E944500F801E05AFF4F80833FE742
:1003C00088E391E0315080409040E1F700C00000A8
:1003D0000F5F1F4F0630110559F700E010E0F801DC
:1003E000E05AFF4F6081C80109960E9479002FEB07
:1003F0003AED80E0215030408040E1F700C000003D
:100400000F5F1F4F0630110551F704C08550833030
:1004100008F05FCFB70180E190E00E94A6008981DB
:100420000E94FC009FE72AE136E0915020403040D6
:10043000E1F700C00000B70181E190E00E94A60052
:1004400089810E94FC000E9400018B3C09F041CF91
:100450000E9400018B3C09F03CCF0E94000189837F
:10046000682F80E190E00E9479008FE798E321E017
:10047000815090402040E1F700C000000E94000140
:100480008983682F81E190E00E9479003FE788E34B
:1004900091E0315080409040E1F700C00000D8CF9B
:1004A0001F920F920FB60F9211240F900FBE0F9054
:0804B0001F901895F894FFCF8E
:00000001FF
