:100000000C942A000C9447000C9447000C94470071
:100010000C9447000C9447000C9447000C94470044
:100020000C9447000C9447000C9447000C94470034
:100030000C9447000C9447000C9447000C94470024
:100040000C9447000C9447000C9447000C94470014
:100050000C94470011241FBECFE5D8E0DEBFCDBF12
:1000600010E0A0E6B0E0EEE6F1E002C005900D92EF
:10007000A036B107D9F720E0A0E6B0E001C01D929C
:10008000A636B207E1F70E949B000C94B5000C94D1
:100090000000BE9A87B38F7487BB80E48DB9089542
:1000A0008FB9779BFECF8FB1089592B39F70282FA1
:1000B000207F922B92BB9098919A32E03A95F1F77B
:1000C00000C09198EFE8F1E03197F1F700C000002F
:1000D00022B32F70F0E18F9FC0011124822B82BBCD
:1000E000919A32E03A95F1F700C091988FE39CE93C
:1000F0000197F1F700C00000089581B3806F81BBC4
:10010000889A899A2FE788E391E0215080409040B7
:10011000E1F700C0000082E00E94550088E20E94E2
:1001200055008EE00E94550086E00E94550081E057
:100130000E94550008950E9449000E947D000E947F
:100140004900C0E0D0E089E70E945000FE01E05A7B
:10015000FF4F80838FE097E20197F1F700C0000026
:0E0160002196C630D10579F7E8CFF894FFCF8D
:00000001FF
