:100000000C942A000C9447000C9447000C94470071
:100010000C9447000C9447000C9447000C94470044
:100020000C9447000C9447000C9447000C949106E4
:100030000C9447000C9447000C9447000C94470024
:100040000C9447000C9447000C9447000C94470014
:100050000C94470011241FBECFE5D8E0DEBFCDBF12
:1000600011E0A0E6B0E0E2ECFDE002C005900D92E8
:10007000AE34B107D9F721E0AEE4B1E001C01D9282
:10008000AD35B207E1F70E9469030C94DF060C94CA
:1000900000008FEF809360008BB38F608BBB10925A
:1000A0004F0160E170E08AB380788ABB2AB3CB014C
:1000B00000904F0102C0880F991F0A94E2F7822B2B
:1000C0008ABB10924E0140E050E090E029B330E04E
:1000D000042E02C0359527950A94E2F720FD15C03D
:1000E000933049F480914F01882301F1813001F16F
:1000F000823011F51FC080914F0121E3280F892F15
:10010000880F980F822F890F08959F5F90934E015B
:100110004F5F5F4F9430D1F680914F018F5F809396
:100120004F01833008F4BFCF8FEF08958AE208951E
:1001300080E3089583E208959F5F90934E01ECCF92
:1001400092B39F70282F207F922B92BB9298939A04
:1001500032E03A95F1F700C09398EFE8F1E031977B
:10016000F1F700C0000022B32F70F0E18F9FC001B3
:100170001124822B82BB939A32E03A95F1F700C0AA
:1001800093988FE39CE90197F1F700C00000089570
:1001900092B39F70282F207F922B92BB929A939AB2
:1001A00032E03A95F1F700C09398EFE8F1E031972B
:1001B000F1F700C0000022B32F70F0E18F9FC00163
:1001C0001124822B82BB939A32E03A95F1F700C05A
:1001D00093988FE39CE90197F1F700C00000089520
:1001E000AF92BF92CF92DF92EF92FF920F931F9345
:1001F000CF93DF93D82FC62F6A01790181B3806F27
:1002000081BB8A9A8B9AD13120F0D33609F056C03F
:1002100062C0603110F405C0D0E0C33609F078C088
:1002200062C08FE59AEE0197F1F700C0000082E00E
:100230000E94A000D336E1F0F6018081811104C054
:1002400017C0C0E001C0C3E6DD2329F084E10E94AD
:10025000A000D150D9F786015601F0E1AF0EB11CD4
:1002600063C0A016B10621F0F801808181115CC045
:1002700080EC0E94A000C33609F499C0F701808188
:1002800081110BC094C084E10E94A000C150D9F735
:100290005BC0888181115CC08AC0C111F4CF54C099
:1002A0008FE59AEE0197F1F700C0000082E00E940E
:1002B000A000F60180818823D9F2CDCF603180F390
:1002C000ABCF8FE59AEE0197F1F700C0000082E016
:1002D0000E94A000CDCF603108F052C0F2CF80EC78
:1002E0000E94A00064C0EFE5FAEE3197F1F700C07C
:1002F000000082E00E94A000D33609F053C0EFCF87
:1003000080EC0E94A000F701808181111DC04FC0C8
:100310008FE59AEE0197F1F700C0000082E00E949D
:10032000A000D336B1F5ECCFF80181918F010E9486
:10033000C8008FE493EC0197F1F700C00000F601CC
:10034000808181118ECF94CFE701F0E1EF0EF11C97
:1003500089910E94C8008FE493EC0197F1F700C0E7
:100360000000CE15DF0509F094CF21C0EFE5FAEECD
:100370003197F1F700C0000082E00E94A000C0CFDA
:10038000633609F4B0CFF2CF80EC0E94A000C0E049
:1003900075CFF6018081811154CFF6CF80EC0E9499
:1003A000A00005C0F601808181114DCFF7CFDF910C
:1003B000CF911F910F91FF90EF90DF90CF90BF9062
:1003C000AF900895CF93C82F8CE00E94A000C13059
:1003D00089F42BE630E04CE650E06EE083E60E94C4
:1003E000F00023E630E04CE650E066E083E60E9451
:1003F000F0004DC0C03B89F42CE630E04AE650E006
:1004000063E68EE00E94F0002CE630E045E650E026
:1004100063E68AE00E94F0003AC0C13B89F42CE612
:1004200030E049E650E063E68AE00E94F0002CE606
:1004300030E04DE650E063E68EE00E94F00027C019
:10044000C33089F42BE630E04CE650E06EE083E602
:100450000E94F00023E630E04CE650E064E083E6E2
:100460000E94F00014C0C23011F0C43081F42BE6B9
:1004700030E04CE650E066E083E60E94F00023E6C0
:1004800030E04CE650E06EE083E60E94F000CF9151
:100490000895CF93DF93D82F8CE00E94A0002BE625
:1004A00030E04CE650E06BE083E60E94F0009DEC0B
:1004B000D99FC12D1124C695C695C695C99F912D6A
:1004C0001124969596959695990F892F880F880FE8
:1004D000980F8C2F891B805D0E94C800CC0F8C2F39
:1004E000880F880FC80F8D2F8C1B805D0E94C8005D
:1004F000DF91CF91089581B3806F81BB8A9A8B9AE7
:100500002FE788E391E0215080409040E1F700C060
:10051000000082E00E94A00088E20E94A0008EE01D
:100520000E94A00086E00E94A00081E00E94A0003E
:1005300008958F3FD9F02091550130915601263012
:100540003105A1F00E94C8002FE788E391E0215017
:1005500080409040E1F700C00000809155019091EB
:10056000560101969093560180935501089587B3E3
:10057000806B87BBBE9881E58DB908958FB98FE1F7
:100580009EE40197F1F700C00000779BFECF9FE744
:1005900028E381E0915020408040E1F700C0000056
:1005A0008FB1089581E089BF83E083BF08951F93D1
:1005B000CF93DF93D82F80E782BF10925301109220
:1005C00052010E94D2028CE00E94A0008091500152
:1005D00090915101892B09F45AC014E680EC0E94D5
:1005E000A000DD2339F0C0E084E10E94A000CF5FCD
:1005F000DC13FACF40915001509151019A01369588
:10060000279536952795ABE7B4E10E94D0069695DD
:100610008795189F9001199F300D1124CA01821BE4
:10062000930B9C01ADECBCEC0E94D006969587958F
:100630009695879596958795805D0E94C800409114
:100640005001509151019A01ADECBCEC0E94D006D2
:100650009695879596958795969587959C01220FF7
:10066000331F880F991F880F991F880F991F820FBA
:10067000931F9A01281B390BC901805D0E94C80095
:100680008091500190915101892B09F0A7CF13BEA1
:10069000DF91CF911F910895899A889883E389B952
:1006A00010BC8AB188618AB980B5866880BD2FE7A1
:1006B0008AE196E0215080409040E1F700C00000C0
:1006C00008955D9BFECF8CB908955F9BFECF8CB1E2
:1006D0000895CF93DF931F92CDB7DEB789E7898363
:1006E0000E947B020E94B7020E944C03789411E0A2
:1006F000EE24E394FF24FA940F2EFEE1CF2ED12CAA
:10070000F02D0F2EFAE18F2EF02D0F2EF7E0BF2ED9
:10071000F02D0F2EF6E0AF2EF02D143098F00E9441
:100720007B0220E730E048E750E06AE080E00E948A
:10073000F000D0925101C092500185E00E94D70292
:100740009E2C45C0E09254010E947B0229E830E0D3
:100750004AE950E060E080E00E94F000F092600022
:1007600080916000803391F1F09260000E94490016
:100770008093600080916000833261F48091540125
:10078000823009F4BFC282E00E94E20182E08093DD
:1007900054010DC0809160008A3249F48091540167
:1007A000813029F08E2D0E94E201E09254012FE762
:1007B00088E391E0215080409040E1F700C00000C4
:1007C00080916000803381F6912E01C0912E80913E
:1007D00054018130D9F58E2D0E94BE0289830E947A
:1007E0007B022CE630E04BEA50E060E080E00E94C3
:1007F000F0008091550190915601069714F5F09202
:1008000060000E94490080936000E0915501F091E2
:10081000560180916000E95AFE4F8083809160000C
:100820000E9499022FE789EA93E02150804090408E
:10083000E1F700C0000080915501909156010697A4
:10084000F4F2109256011092550162C2823009F002
:100850005FC20E94BE0289830E947B022CE630E0C8
:100860004CEB50E060E080E00E94F0008091550188
:1008700090915601069714F5F09260000E9449008D
:1008800080936000E0915501F091560180916000E5
:10089000E95AFE4F8083809160000E9499022FE701
:1008A00089EA93E0215080409040E1F700C00000C9
:1008B00080915501909156010697F4F210925601DD
:1008C0001092550125C2F801E95AFE4F80810E941D
:1008D000BE0289832FEF80E792E021508040904054
:1008E000E1F700C000000F5F1F4F0630110559F7F8
:1008F00019828AE00E94BE0289832FE788E391E093
:10090000215080409040E1F700C00000898188308C
:1009100089F480915401813069F4B09254010E94AD
:100920007B022CE630E04CEC50E063E680E00E9475
:10093000F00020C08981883091F480915401823088
:1009400071F485E0809354010E947B022CE630E034
:1009500047ED50E063E680E00E94F0000BC0898123
:10096000893041F4809154018150823018F4809292
:1009700054010EC080915401873051F40E947B02D3
:1009800021EE30E042EF50E060E080E00E94F000B5
:10099000F0926000809160008033B9F18091540141
:1009A0008650823090F50E944900809360008091CB
:1009B0006000833259F480915401873009F4ABC14F
:1009C00084E00E94E201B09254010DC08091600069
:1009D0008A3249F480915401863029F083E00E94E4
:1009E000E201A09254012FEF80E792E02150804075
:1009F0009040E1F700C0000080916000803329F052
:100A0000809154018650823070F2809154010E948E
:100A1000BE02898380915401863009F04BC00E9448
:100A20007B022CE630E041E051E060E080E00E9493
:100A3000F0008091550190915601069704F50E94AF
:100A4000490080936000E0915501F091560180913A
:100A50006000E95AFE4F8083809160000E949902F5
:100A60002FE789EA93E0215080409040E1F700C0F1
:100A700000008091550190915601069704F3109261
:100A800056011092550100E010E0F801E95AFE4FBE
:100A900080810E94BE0289832FEF80E792E021507F
:100AA00080409040E1F700C000000F5F1F4F06300C
:100AB000110559F7809154019AEF980F923008F080
:100AC00099C00E944C030E946503809362002FEB43
:100AD0008AED90E0215080409040E1F700C0000096
:100AE0000E946503809361000E947B0222E131E055
:100AF00043E251E060E080E00E94F00080916200FB
:100B0000813B31F40E94E20181EB8093620008C0D6
:100B100080916200803B21F40E94E201809162009A
:100B2000809161000E944902F09260008BEC0E946B
:100B3000610380916000803309F4D1C08BEC0E9486
:100B400061030E94490080936000809160008A32B6
:100B500059F480916200813B39F480EB0E94E201FC
:100B600080EB8093620032C080916000833259F440
:100B700080916200803B39F481EB0E94E20181EBBD
:100B80008093620023C080916000873371F480916C
:100B90006100833150F08091610081508093610049
:100BA000809161000E94490211C0809160008933E8
:100BB00069F480916100863248F4809161008F5F12
:100BC00080936100809161000E9449028FE097E26A
:100BD0000197F1F700C00000809162000E9461035C
:100BE000809161000E94610380916000803309F070
:100BF000A5CF75C0853009F072C00E944C030E94D9
:100C00006503809362009FEB2AED80E091502040C5
:100C10008040E1F700C000000E94650380936100FE
:100C20000E947B0222E131E043E251E060E080E09B
:100C30000E94F00080916200813B31F40E94E20149
:100C400081EB8093620008C080916200803B21F4B8
:100C50000E94E20180916200809161000E9449023D
:100C6000F09260008BEC0E94610380916000803301
:100C7000B1F18BEC0E9461030E94490080936000F7
:100C8000809160008A3259F480916200813B39F48E
:100C900080EB0E94E20180EB809362000EC08091A5
:100CA0006000833251F480916200803B31F481EB2B
:100CB0000E94E20181EB809362008FE097E201974E
:100CC000F1F700C00000809162000E9461038091F2
:100CD00061000E94610380916000803351F61E2DF7
:100CE000809154018A3109F018CD0E947B0223E3E0
:100CF00031E04DE351E064E080E00E94F00011E05B
:100D0000190D0BCD809160008A3209F050CD4ACD8B
:100D100000E010E0D8CD809160008A3209F063CE07
:100D20005DCE1F920F920FB60F9211242F938F93C7
:100D30009F93809152019091530180915201909123
:100D40005301853F914050F480915201909153019D
:100D50000196909353018093520118C080915201E3
:100D600090915301843F914088F08091500190917F
:100D7000510180915001909151010197909351013F
:100D800080935001109253011092520180E782BF6C
:100D90009F918F912F910F900FBE0F901F901895DC
:100DA000A29FB001B39FC001A39F700D811D1124AC
:100DB000911DB29F700D811D1124911D0895F8940D
:020DC000FFCF63
:100DC200FF1BB158004F464600202020004F4E0026
:100DD2005365636F6E647300203C424C4F434B4536
:100DE200442020464F523E200041444D494E5B581C
:100DF2005D20484F53545B205D0053454C4543549E
:100E0200203C2D3E20204D4F444500456E746572B6
:100E12002041444D494E207061737300456E7465E4
:100E22007220484F535420706173730054525545D9
:100E32002041444D494E005452554520484F535489
:100E4200005945535B205D203C2D3E204E4F5B58A0
:100E52005D0053455420484F535420504153533F53
:100E620000536574204E657720484F5354207061BB
:100E720073004368616E67652E54656D7020202093
:100E8200B0430041432E41444D494E2020202020B2
:100E92002F200054727920416761696E002020572B
:0E0EA200726F6E672070617373776F726400F9
:00000001FF
