:100000000C942A000C9447000C9447000C94470071
:100010000C9447000C9447000C9447000C94470044
:100020000C9447000C9447000C9447000C94470034
:100030000C9447000C9447000C9447000C94470024
:100040000C9447000C9447000C9447000C94470014
:100050000C94470011241FBECFE5D8E0DEBFCDBF12
:1000600010E0A0E6B0E0E8E6F5E002C005900D92F1
:10007000A439B107D9F720E0A4E9B0E001C01D928E
:10008000AC39B207E1F70E946D020C94B2020C94F5
:1000900000008BB38F608BBB60E070E0E0E1F0E0CC
:1000A000862F2AB320782ABB9AB39F01062E02C05E
:1000B000220F331F0A94E2F7292B2ABB40E050E0BD
:1000C000942F29B330E0042E02C0359527950A9469
:1000D000E2F720FD0FC0433039F48823B9F08130B6
:1000E000B9F0823061F416C08F5C242F220F920F7A
:1000F000890F08954F5F5F4F4430510509F76F5FD7
:100100007F4F6330710561F68FEF08958AE208959D
:1001100080E3089583E2089592B39F70282F207F93
:10012000922B92BB9098919A32E03A95F1F700C0E9
:100130009198EFE8F1E03197F1F700C0000022B3A9
:100140002F70F0E18F9FC0011124822B82BB919A06
:1001500032E03A95F1F700C091988FE39CE901975E
:10016000F1F700C00000089592B39F70282F207F00
:10017000922B92BB909A919A32E03A95F1F700C097
:100180009198EFE8F1E03197F1F700C0000022B359
:100190002F70F0E18F9FC0011124822B82BB919AB6
:1001A00032E03A95F1F700C091988FE39CE901970E
:1001B000F1F700C000000895AF92BF92CF92DF9296
:1001C000EF92FF920F931F93CF93DF93D82FC62FF9
:1001D0006A017901813120F0833609F05BC06CC07F
:1001E000603128F0633611F4C3E601C0C0E081B38A
:1001F000806F81BB889A899A2FE788E391E021502C
:1002000080409040E1F700C00000D336C1F0F60115
:1002100080818823A1F0DD2329F084E10E948C00F5
:10022000D150D9F786015601F0E1AF0EB11C48C09C
:10023000A016B10621F0F8018081811141C080EC47
:100240000E948C00C33609F48CC0F70180818111B3
:100250000BC087C084E10E948C00C150D9F743C015
:100260008881811144C07DC0C111F4CF3CC081B3ED
:10027000806F81BB889A899AFFE728E381E0F1507B
:1002800020408040E1F700C00000F6018081882313
:10029000B1F2C8CF603158F34CC081B3806F81BBDD
:1002A000889A899AFFE728E381E0F1502040804056
:1002B000E1F700C00000C3CF603108F04EC0EDCFC1
:1002C000F80181918F010E94B400FFE728E381E0EB
:1002D000F15020408040E1F700C00000F60180812D
:1002E0008111A6CFACCFE701F0E1EF0EF11C8991AF
:1002F0000E94B4002FE788E391E0215080409040B5
:10030000E1F700C00000CE15DF0509F0A9CF29C034
:1003100081B3806F81BB889A899AEFE7F8E321E087
:10032000E150F0402040E1F700C00000C0E0D0E024
:100330006ECF633669F7D0E057CF81B3806F81BB52
:10034000889A899A8FE798E3E1E081509040E040F5
:10035000E1F700C00000C0E072CF633609F444CF7B
:10036000ECCFDF91CF911F910F91FF90EF90DF9035
:10037000CF90BF90AF90089581B3806F81BB889A72
:10038000899A2FE788E391E0215080409040E1F77F
:1003900000C0000082E00E948C0088E20E948C0075
:1003A0008EE00E948C0086E00E948C0081E00E941A
:1003B0008C000895EF92FF920F931F93CF93DF93DA
:1003C000CDB7DEB760970FB6F894DEBF0FBECDBFD6
:1003D00080E1E1E6F0E0DE01119601900D928A9550
:1003E000E1F781B3806F81BB889A899A2FE788E310
:1003F00091E0215080409040E1F700C0000081E092
:100400000E948C008EE00E948C00898181111AC0AC
:1004100015C00F5F1F4F80810E94B400AFE7B8E3A3
:1004200021E0A150B0402040E1F700C000000E15CF
:100430001F0521F0F80180818111EBCF80EC0E9433
:100440008C0014C089810E94B4008FE798E3A1E07A
:1004500081509040A040E1F700C000008E010E5F87
:100460001F4F7E01B1E1EB0EF11CE4CF60960FB699
:10047000F894DEBF0FBECDBFDF91CF911F910F91DA
:10048000FF90EF9008958F3FD9F020919400309124
:10049000950026303105A1F00E94B4002FE788E3D3
:1004A00091E0215080409040E1F700C00000809131
:1004B00094009091950001969093950080939400FC
:1004C000089587B3806B87BBBE9881E58DB9089589
:1004D0008FB9779BFECF8FB108950E94BC0122E7B0
:1004E00030E043E850E060E080E00E94DC000E94E1
:1004F000DA010E9461021FEF1CC00E944900809334
:100500006000E0919400F091950080916000EA56BF
:10051000FF4F8083809160000E944302109360002F
:100520002FEF81EE94E0215080409040E1F700C031
:10053000000080919400909195000697F4F2C0E03D
:10054000D0E0FE01EA56FF4F80810E9468028FE1F1
:100550009EE40197F1F700C000002196C630D10556
:0805600081F7E7CFF894FFCF0B
:10056800FF456E7465722074686520506173732E40
:100578002E004D6F746F7220447269766520502E7C
:10058800314D0057656C636F6D6521202020202058
:0405980020202E00F1
:00000001FF
