:100000000C942A000C9447000C9447000C94470071
:100010000C9447000C9447000C9447000C94470044
:100020000C9447000C9447000C9447000C94470034
:100030000C9447000C9447000C9447000C94470024
:100040000C9447000C9447000C9447000C94470014
:100050000C94470011241FBECFE5D8E0DEBFCDBF12
:1000600010E0A0E6B0E0E8E9F5E002C005900D92EE
:10007000A439B107D9F720E0A4E9B0E001C01D928E
:10008000AC39B207E1F70E9485020C94CA020C94C5
:1000900000008BB38F608BBB60E070E0E0E1F0E0CC
:1000A000862F2AB320782ABB9AB39F01062E02C05E
:1000B000220F331F0A94E2F7292B2ABB40E050E0BD
:1000C000942F29B330E0042E02C0359527950A9469
:1000D000E2F720FD0FC0443039F48823B9F08130B5
:1000E000B9F0823061F416C08F5C242F220F920F7A
:1000F000890F08954F5F5F4F4430510509F76F5FD7
:100100007F4F6330710561F68FEF08958AE208959D
:1001100080E3089583E2089592B39F70282F207F93
:10012000922B92BB9098919A32E03A95F1F700C0E9
:100130009198EFE8F1E03197F1F700C0000022B3A9
:100140002F70F0E18F9FC0011124822B82BB919A06
:1001500032E03A95F1F700C091988FE39CE901975E
:10016000F1F700C00000089592B39F70282F207F00
:10017000922B92BB909A919A32E03A95F1F700C097
:100180009198EFE8F1E03197F1F700C0000022B359
:100190002F70F0E18F9FC0011124822B82BB919AB6
:1001A00032E03A95F1F700C091988FE39CE901970E
:1001B000F1F700C000000895AF92BF92CF92DF9296
:1001C000EF92FF920F931F93CF93DF93D82FC62FF9
:1001D0006A01790181B3806F81BB889A899AD13194
:1001E00020F0D33609F056C062C0603110F405C06B
:1001F000D0E0C33609F078C062C02FE788E391E011
:10020000215080409040E1F700C00000D336E1F07B
:10021000FA018081811104C017C0C0E001C0C3E6AB
:10022000DD2329F084E10E948C00D150D9F78601AA
:100230005601F0E1AF0EB11C63C0A016B10621F06B
:10024000F801808181115CC080EC0E948C00C33673
:1002500009F49FC0F701808181110BC09AC084E12D
:100260000E948C00C150D9F75EC0888181115FC0A7
:1002700090C0C111F4CF57C0FFE728E381E0F150EF
:1002800020408040E1F700C00000F6018081882313
:10029000D9F2CDCF603180F3ABCFFFE728E381E027
:1002A000F15020408040E1F700C00000CDCF603128
:1002B00008F058C0F2CF80EC0E948C006AC09FE723
:1002C000E8E3F1E09150E040F040E1F700C00000C9
:1002D000D33609F059C0EFCF80EC0E948C00F701B3
:1002E0008081811120C055C0FFE728E381E0F150F3
:1002F00020408040E1F700C00000D336E1F5ECCFAC
:10030000F80181918F010E94B400FFE728E381E0AA
:10031000F15020408040E1F700C00000F6018081EC
:1003200081118BCF91CFE701F0E1EF0EF11C8991A4
:100330000E94B4002FEF8FEA94E02150804090405B
:10034000E1F700C00000CE15DF0509F08ECF21C017
:10035000EFE7F8E321E0E150F0402040E1F700C092
:100360000000BACF633609F4AACFF2CF80EC0E9426
:100370008C00C0E06FCFF601808181114ECFF6CFA7
:1003800080EC0E948C0005C0F6018081811147CF6E
:10039000F7CFDF91CF911F910F91FF90EF90DF90FA
:1003A000CF90BF90AF90089581B3806F81BB889A42
:1003B000899A2FE788E391E0215080409040E1F74F
:1003C00000C0000082E00E948C0088E20E948C0045
:1003D0008EE00E948C0086E00E948C0081E00E94EA
:1003E0008C000895EF92FF920F931F93CF93DF93AA
:1003F000CDB7DEB760970FB6F894DEBF0FBECDBFA6
:1004000080E1E1E6F0E0DE01119601900D928A951F
:10041000E1F781B3806F81BB889A899A2FE788E3DF
:1004200091E0215080409040E1F700C0000081E061
:100430000E948C008EE00E948C00898181111AC07C
:1004400015C00F5F1F4F80810E94B400AFE7B8E373
:1004500021E0A150B0402040E1F700C000000E159F
:100460001F0521F0F80180818111EBCF80EC0E9403
:100470008C0014C089810E94B4008FE798E3A1E04A
:1004800081509040A040E1F700C000008E010E5F57
:100490001F4F7E01B1E1EB0EF11CE4CF60960FB669
:1004A000F894DEBF0FBECDBFDF91CF911F910F91AA
:1004B000FF90EF9008958F3FD9F0209194003091F4
:1004C000950026303105A1F00E94B4002FE788E3A3
:1004D00091E0215080409040E1F700C00000809101
:1004E00094009091950001969093950080939400CC
:1004F000089587B3806B87BBBE9881E58DB9089559
:100500008FB9779BFECF8FB108950E94D40122E767
:1005100030E043E850E060E080E00E94DC000E94B0
:10052000F2010E9479021FEF1CC00E9449008093D3
:100530006000E0919400F091950080916000EA568F
:10054000FF4F8083809160000E945B0210936000E7
:100550002FEF81EE94E0215080409040E1F700C001
:10056000000080919400909195000697F4F2C0E00D
:10057000D0E0FE01EA56FF4F80810E9480028FE1A9
:100580009EE40197F1F700C000002196C630D10526
:0805900081F7E7CFF894FFCFDB
:10059800FF456E7465722074686520506173732E10
:1005A8002E004D6F746F7220447269766520502E4C
:1005B800314D0057656C636F6D6521202020202028
:0405C80020202E00C1
:00000001FF
